:020000040800F2
:100000000050002065140008ED100008F5100008ED
:10001000FD100008051100080D1100080000000087
:1000200000000000000000000000000015110008A2
:1000300021110008000000002D11000839110008EE
:10004000AD140008AD140008AD140008AD1400088C
:10005000AD140008AD140008AD140008AD1400087C
:10006000AD140008AD140008AD140008AD1400086C
:10007000AD140008AD140008AD140008AD1400085C
:10008000AD140008AD140008AD140008AD1400084C
:10009000AD140008AD140008AD140008AD1400083C
:1000A000AD140008AD140008AD140008AD1400082C
:1000B00045110008AD140008AD140008AD14000887
:1000C000AD140008AD140008AD140008AD1400080C
:1000D000AD140008AD140008AD140008AD140008FC
:1000E000AD140008AD140008AD14000800000000B5
:1000F0000000000000000000000000000000000000
:0C01000000000000000000005FF808F1A3
:10010C0010B5054C237833B9044B13B10448AFF345
:10011C0000800123237010BD14000020000000009B
:10012C00202B000808B5034B1BB103490348AFF360
:10013C00008008BD0000000018000020202B0008E3
:10014C0080B485B000AFF860B9601346FB80FB68E3
:10015C0000229A75FB6801221A60FB6801225A6022
:10016C00FB6801229A60FB680122DA60FB68BA68BE
:10017C001A61FB68FA889A82FB6800229A6100BFB8
:10018C001437BD4680BC704780B500AF4FF40052A9
:10019C0008490948FFF7D4FF4FF480420549074846
:1001AC00FFF7CEFF4FF4004202490548FFF7C8FFA6
:1001BC0000BF80BD000C01405400002070000020E6
:1001CC008C00002080B483B000AF78600E497A6850
:1001DC001346DB009B1A9B000B4418331B68002B47
:1001EC000BD009497A681346DB009B1A9B000B4421
:1001FC00183300221A60012300E0002318460C3744
:10020C00BD4680BC704700BF5400002080B400AFD6
:10021C0000BFBD4680BC704780B582B000AF78602F
:10022C007B685A687B681A607B689A687B685A603E
:10023C007B681A697B689B8A1946104601F026FC7C
:10024C0003461A467B689A607B689B7D032B7ED89D
:10025C0001A252F823F000BF7502000883020008C7
:10026C00D7020008150300087B689B68002B02D19D
:10027C007B6801229A757B681A687B685B689A4276
:10028C001DD17B685A687B689B689A4217D17B6842
:10029C00DA687B689B689A4215D07B689A687B68A1
:1002AC00DA607B689B68002B0DD17B6802229A7503
:1002BC007B6801229A61284B64221A6003E07B68F8
:1002CC0000229A7543E000BF41E07B689B68012BDC
:1002DC0003D17B6800229A7536E01F4B1B68013BEB
:1002EC001D4A13601C4B1B68002B2DD17B689B682F
:1002FC00002B05D17B6803229A75184B01221A60DA
:10030C00154B64221A601FE0144B1B68002B04D0A1
:10031C00FFF77CFF114B00221A607B689B68012B56
:10032C0003D17B6800229A7510E00B4B1B68013BD4
:10033C00094A1360084B1B68002B07D1FFF766FFB7
:10034C00054B64221A6001E000BF00E000BF00BF53
:10035C000837BD4680BD00BF0000002030000020E3
:10036C0080B500AF0548FFF757FF0548FFF754FF6E
:10037C000448FFF751FF00BF80BD00BF54000020B0
:10038C00700000208C00002080B400AF064B0022CF
:10039C001A60054B00225A60034B00229A6000BF82
:1003AC00BD4680BC704700BF3400002080B500AF54
:1003BC0000F07AFB0346002B15D00120FFF702FF5B
:1003CC000346002B04D0094B1B680133074A13600A
:1003DC00074B1A68054B1B681344184600F0FCF9D0
:1003EC00012000F0A7F800BF80BD00BF3400002042
:1003FC004000002080B500AF00F066FB0346002BE8
:10040C0015D00120FFF7DEFE0346002B04D0094B6C
:10041C005B680133074A5360074B5A68054B5B68AE
:10042C001344184600F0D8F9022000F083F800BFFE
:10043C0080BD00BF340000204000002080B500AF1C
:10044C0000F052FB0346002B15D00120FFF7BAFE3B
:10045C000346002B04D0094B9B680133074A936079
:10046C00074B9A68054B9B681344184600F0B4F987
:10047C00032000F05FF800BF80BD00BF34000020F7
:10048C004000002080B485B000AFF860B9607A609D
:10049C003B60FB681A68BB681A44FB681A60FB680F
:1004AC005A687B681A44FB685A60FB689A683B6818
:1004BC001A44FB689A6000BF1437BD4680BC704775
:1004CC0080B500AF104B1A68104B1B681A440E4BCA
:1004DC0059680E4B5B6819440B4B9B6819440B4BCA
:1004EC009B680B449A420BD1084B1968074B5A680E
:1004FC00064B9B680448FFF7C5FFFFF745FF01E07B
:10050C00FFF742FF00BF80BD4000002034000020F8
:10051C0080B500AFFFF74AFFFFF790FFFFF76AFFC8
:10052C000220FFF74FFE0346002B01D0FFF7C8FF58
:10053C0000BF80BD80B58CB000AF78607B68A44AEA
:10054C0082FB03129210DB17D31AFB627A68A04B62
:10055C0083FB02139910D317C91A0B469B000B444B
:10056C005B00D31ABB6207F1180300221A605A60B1
:10057C009A60DA6007F1080300221A605A609A60E8
:10058C00DA60FB6A092B71D801A252F823F000BF84
:10059C00C5050008D7050008E9050008FB0500089B
:1005AC000D0600081F060008310600084306000867
:1005BC0055060008670600080023BB610023FB6199
:1005CC0000233B6200237B6250E00023BB610023CD
:1005DC00FB6100233B6201237B6247E00023BB618C
:1005EC000023FB6101233B6200237B623EE000237E
:1005FC00BB610023FB6101233B6201237B6235E07D
:10060C000023BB610123FB6100233B6200237B625F
:10061C002CE00023BB610123FB6100233B6201231F
:10062C007B6223E00023BB610123FB6101233B625E
:10063C0000237B621AE00023BB610123FB610123D1
:10064C003B6201237B6211E00123BB610023FB6150
:10065C0000233B6200237B6208E00123BB61002383
:10066C00FB6100233B6201237B6200BFBB6A092B49
:10067C0070D801A252F823F0AD060008BF0600089E
:10068C00D1060008E3060008F50600080707000875
:10069C00190700082B0700083D0700084F07000842
:1006AC000023BB600023FB6000233B6100237B61C4
:1006BC0050E00023BB600023FB6000233B6101235F
:1006CC007B6147E00023BB600023FB6001233B619F
:1006DC0000237B613EE00023BB600023FB60012311
:1006EC003B6101237B6135E00023BB600123FB6090
:1006FC0000233B6100237B612CE00023BB600123C2
:10070C00FB6000233B6101237B6123E00023BB6082
:10071C000123FB6001233B6100237B611AE0002372
:10072C00BB600123FB6001233B6101237B6111E072
:10073C000123BB600023FB6000233B6100237B6132
:10074C0008E00123BB600023FB6000233B61012315
:10075C007B6100BF7B6ADBB21A4602211D4801F0A7
:10076C00ACF93B6ADBB21A4604211A4801F0A5F930
:10077C00FB69DBB21A460821164801F09EF9BB69E9
:10078C00DBB21A461021134801F097F97B69DBB2F2
:10079C001A4640210F4801F090F93B69DBB21A462A
:1007AC0080210C4801F089F9FB68DBB21A464FF442
:1007BC008071084801F081F9BB68DBB21A464FF42E
:1007CC000071044801F079F900BF3037BD4680BD97
:1007DC00676666660008014080B58CB000AF786033
:1007EC007B68A64A82FB03129210DB17D31AFB62BA
:1007FC007A68A24B83FB02139910D317C91A0B46C4
:10080C009B000B445B00D31ABB6207F11803002258
:10081C001A605A609A60DA6007F1080300221A60C5
:10082C005A609A60DA60FB6A092B71D801A252F8FF
:10083C0023F000BF690800087B0800088D08000839
:10084C009F080008B1080008C3080008D508000874
:10085C00E7080008F90800080B0900080023BB6131
:10086C000023FB6100233B6200237B6250E00023EA
:10087C00BB610023FB6100233B6201237B6247E0E9
:10088C000023BB610023FB6101233B6200237B62DD
:10089C003EE00023BB610023FB6101233B6201238B
:1008AC007B6235E00023BB610123FB6100233B62CB
:1008BC0000237B622CE00023BB610123FB6100233E
:1008CC003B6201237B6223E00023BB610123FB61BC
:1008DC0001233B6200237B621AE00023BB610123EE
:1008EC00FB6101233B6201237B6211E00123BB61AD
:1008FC000023FB6100233B6200237B6208E00123A1
:10090C00BB610023FB6100233B6201237B6200BFC0
:10091C00BB6A092B70D801A252F823F051090008C8
:10092C00630900087509000887090008990900087F
:10093C00AB090008BD090008CF090008E10900084F
:10094C00F30900080023BB600023FB6000233B611C
:10095C0000237B6150E00023BB600023FB6000237D
:10096C003B6101237B6147E00023BB600023FB60FC
:10097C0001233B6100237B613EE00023BB6000232D
:10098C00FB6001233B6101237B6135E00023BB60ED
:10099C000123FB6000233B6100237B612CE00023DF
:1009AC00BB600123FB6000233B6101237B6123E0DF
:1009BC000023BB600123FB6001233B6100237B61AF
:1009CC001AE00023BB600123FB6001233B61012380
:1009DC007B6111E00123BB600023FB6000233B61C2
:1009EC0000237B6108E00123BB600023FB60002334
:1009FC003B6101237B6100BF7B6ADBB21A464FF47B
:100A0C0080611F4801F059F83B6ADBB21A464FF47B
:100A1C0000611B4801F051F8FB69DBB21A464FF438
:100A2C008051174801F049F8BB69DBB21A464FF404
:100A3C000041134801F041F87B69DBB21A464021B2
:100A4C00104801F03AF83B69DBB21A4680210D4898
:100A5C0001F033F8FB68DBB21A464FF48071094899
:100A6C0001F02BF8BB68DBB21A464FF40071054855
:100A7C0001F023F800BF3037BD4680BD676666665F
:100A8C0000080140000C014080B400AF054B1B78FE
:100A9C00002B01D1012300E000231846BD4680BC89
:100AAC00704700BFB400002080B400AF054B1B782A
:100ABC00012B01D1012300E000231846BD4680BC68
:100ACC00704700BFB400002080B400AF054B1B780A
:100ADC00022B01D1012300E000231846BD4680BC47
:100AEC00704700BFB400002080B400AF054B1B78EA
:100AFC00032B01D1012300E000231846BD4680BC26
:100B0C00704700BFB400002080B500AF204B1B78AD
:100B1C00032B3AD801A252F823F000BF390B00087E
:100B2C004D0B0008610B0008750B00080020FFF747
:100B3C0049FB0346002B21D0154B01221A701DE0F6
:100B4C000020FFF73FFB0346002B19D0104B02226D
:100B5C001A7015E00020FFF735FB0346002B11D06F
:100B6C000B4B03221A700DE00020FFF72BFB034602
:100B7C00002B09D0064B00221A7005E000BF04E0E0
:100B8C0000BF02E000BF00E000BF00BF80BD00BF9F
:100B9C00B400002080B582B000AF786000F0F8FAA5
:100BAC00FFF7DEFB00F0A4F900BF0837BD4680BD9F
:100BBC0080B500AF2021024800F097FF00BF80BD38
:100BCC000008014080B500AF00F06CFC00F02CF880
:100BDC0000F0B6F800F068F80F4801F0CDFBFFF715
:100BEC00D3FA0A2303220D210C4800F0FFFAFFF779
:100BFC00CBFB642264210A4800F024F964226421AE
:100C0C00084800F01FF9FFF77FFFFFF781FC00F0A9
:100C1C00CFF900BFF7E700BFB8000020400000206C
:100C2C00BD0B00082D14000880B590B000AF07F183
:100C3C00180328220021184601F040FF3B1D00221A
:100C4C001A605A609A60DA601A610223BB61012350
:100C5C00BB621023FB6202237B630023BB63002374
:100C6C00FB6307F11803184600F058FF0346002BEE
:100C7C0001D000F0E1F80F237B600223BB6000235E
:100C8C00FB604FF480633B6100237B613B1D0021C3
:100C9C00184601F0C5F90346002B01D000F0CCF842
:100CAC0000BF4037BD4680BD80B586B000AF07F1B0
:100CBC00080300221A605A609A60DA603B460022F0
:100CCC001A605A601D4B4FF080421A601B4B41F664
:100CDC003F725A60194B00229A60184B0922DA6055
:100CEC00164B00221A61154B00229A61134801F031
:100CFC00F3FA0346002B01D000F09EF84FF480531A
:100D0C00BB6007F1080319460C4801F077FC034659
:100D1C00002B01D000F090F800233B6000237B6097
:100D2C003B461946054801F059FE0346002B01D0FD
:100D3C0000F082F800BF1837BD4680BDB800002017
:100D4C0080B588B000AF07F1100300221A605A601A
:100D5C009A60DA60354B9B69344A43F01003936117
:100D6C00324B9B6903F01003FB60FB682F4B9B69B4
:100D7C002E4A43F0200393612C4B9B6903F0200314
:100D8C00BB60BB68294B9B69284A43F00403936101
:100D9C00264B9B6903F004037B607B68234B9B69A8
:100DAC00224A43F008039361204B9B6903F008032C
:100DBC003B603B68002249F6FE711D4800F07DFE49
:100DCC00002240F2FF711B4800F077FE49F6FE73DB
:100DDC003B6101237B610023BB610223FB6107F1B3
:100DEC0010031946124800F0CDFC40F2FF733B6132
:100DFC0001237B610023BB610223FB6107F110031C
:100E0C0019460C4800F0BEFC4FF460433B610023D4
:100E1C007B610123BB6107F110031946054800F003
:100E2C00B1FC00BF2037BD4680BD00BF00100240A2
:100E3C0000080140000C014080B400AF72B600BF46
:100E4C0000BFFDE780B485B000AFF860B9607A6090
:100E5C00254B1B78272B42D8234B1B781946234A4A
:100E6C000B469B000B449B001344FA681A601E4B04
:100E7C001B7819461D4A0B469B000B449B001344E0
:100E8C000433BA681A60184B1B781946174A0B467C
:100E9C009B000B449B00134408337A681A60124B76
:100EAC001B781946114A0B469B000B449B001344BC
:100EBC000C3300221A700C4B1A780B4B1B7819460A
:100ECC0010460A4A0B469B000B449B0013441033FC
:100EDC001860054B1B780133DAB2034B1A7000BF54
:100EEC001437BD4680BC7047200400200001002050
:100EFC0080B483B000AF00237B6048E02A497A6855
:100F0C0013469B0013449B000B4404331B68002BBB
:100F1C0013D025497A6813469B0013449B000B445D
:100F2C0004331B68591E20487A6813469B001344EF
:100F3C009B0003440433196026E01B497A6813466E
:100F4C009B0013449B000B440833196816487A68BD
:100F5C0013469B0013449B0003440433196012494D
:100F6C007A6813469B0013449B000B440C331B788C
:100F7C000133D8B20C497A6813469B0013449B008A
:100F8C000B440C3302461A707B6801337B60074BB1
:100F9C001B781A467B689342B0DB00BF00BF0C374E
:100FAC00BD4680BC704700BF00010020200400201B
:100FBC0080B582B000AF00237B602BE01B497A68C0
:100FCC0013469B0013449B000B440C331B78002BE3
:100FDC001DD016497A6813469B0013449B000B44A2
:100FEC000C331B78013BD8B210497A6813469B002E
:100FFC0013449B000B440C3302461A700B497A685D
:10100C0013469B0013449B000B441B6898477B685A
:10101C0001337B60064B1B781A467B689342CDDB11
:10102C0000BF00BF0837BD4680BD00BF00010020D7
:10103C002004002080B485B000AF154B9B69144A86
:10104C0043F001039361124B9B6903F00103BB60F6
:10105C00BB680F4BDB690E4A43F08053D3610C4BDA
:10106C00DB6903F080537B607B680A4B5B68FB6039
:10107C00FB6823F0E063FB60FB6843F00073FB60EC
:10108C00044AFB68536000BF1437BD4680BC7047F0
:10109C00001002400000014080B584B000AF7860C1
:1010AC007B681B68B3F1804F13D10C4BDB690B4A87
:1010BC0043F00103D361094BDB6903F00103FB60CF
:1010CC00FB68002201211C2000F025FB1C2000F0F5
:1010DC003EFB00BF1037BD4680BD00BF0010024074
:1010EC0080B400AF00BFFDE780B400AF00BFFDE7E8
:1010FC0080B400AF00BFFDE780B400AF00BFFDE7D8
:10110C0080B400AF00BFFDE780B400AF00BFBD46A8
:10111C0080BC704780B400AF00BFBD4680BC704738
:10112C0080B400AF00BFBD4680BC704780B500AF37
:10113C0000F0FEF900BF80BD80B500AF024801F0A1
:10114C006DF900BF80BD00BFB800002080B400AFB7
:10115C0000BFBD4680BC704780B483B000AF7860E0
:10116C007B68084A82FB03129210DB17D31A064ADB
:10117C001360064B00221A6000BF0C37BD4680BCC2
:10118C00704700BF67666666A8000020AC000020B0
:10119C0080B400AF114B1B68002B0BDD0F4B1B6891
:1011AC00013B0E4A13600D4B1B68002B02DC0C4BF1
:1011BC0001221A600B4B1B68002B0BDD094B1B68C3
:1011CC00013B084A1360074B1B68002B02DC064BE3
:1011DC0001221A6000BFBD4680BC7047A8000020E9
:1011EC00AC00002004000020B000002080B485B0CA
:1011FC0000AFF860B9607A603B60FB68BA681A604F
:10120C00FB687A685A60FB683A689A60FB68BA684F
:10121C00DA60FB6800221A6100BF1437BD4680BC3F
:10122C00704780B483B000AF78607B681B68632B19
:10123C0002DD7B6800221A607B685B68632B02DD31
:10124C007B6800225A607B689B68632B02DD7B689D
:10125C0000229A6000BF0C37BD4680BC704780B539
:10126C0084B000AFF860084611461A4603467B81ED
:10127C000B463B811346FB803B7E002B0FD17B89B9
:10128C0001221946F86800F018FC3A89FB881343D0
:10129C009BB200221946F86800F00FFC24E03B7E5C
:1012AC00012B0FD13B8901221946F86800F005FC8F
:1012BC007A89FB8813439BB200221946F86800F028
:1012CC00FCFB11E03B7E022B0ED1FB880122194660
:1012DC00F86800F0F2FB7A893B8913439BB2002239
:1012EC001946F86800F0E9FB00BF1037BD4680BD19
:1012FC0080B584B002AF78607B681B69002B37D156
:10130C007B68DA687B681B689A426CDC002300936C
:10131C000423022201214148FFF7A1FF7B68DB680F
:10132C001846FFF759FA7B68DA687B685B689A4263
:10133C0010DB022300932023102208213748FFF7EB
:10134C008EFF7B68DA687B685B68D31A1846FFF7F8
:10135C00F1F848E0012300932023102208212F48A4
:10136C00FFF77DFF7B68DB681846FFF7E3F83AE090
:10137C007B681B69012B36D17B68DA687B681B683C
:10138C009A4230DC002300932023102208212348AA
:10139C00FFF765FF7B68DB681846FFF7CBF87B68C7
:1013AC00DA687B685B689A4210DB022300930423A3
:1013BC00022201211948FFF752FF7B68DA687B682B
:1013CC005B68D31A1846FFF707FA0CE00123009369
:1013DC000423022201211148FFF741FF7B68DB68DF
:1013EC001846FFF7F9F97B68DB685A1E7B68DA60F0
:1013FC007B68DB68002B0DDC7B681A687B68DA6025
:10140C007B681B69002B0CBF01230023DBB21A463F
:10141C007B681A6100BF0837BD4680BD000C0140D7
:10142C0080B500AF0A48FFF7FCFE0A4B1B68002B87
:10143C000BD0FFF729FB0346002B06D00448FFF71F
:10144C0057FF4FF47A70FFF787FE00BF80BD00BFD7
:10145C0040000020AC000020FFF778FE0B480C4940
:10146C000C4A002302E0D458C4500433C4188C42F4
:10147C00F9D3094A094C002301E013600432A2425B
:10148C00FBD301F023FBFFF79DFB7047000000200E
:10149C0014000020642B00081400002028040020F5
:1014AC00FEE7000080B500AF084B1B68074A43F00D
:1014BC0010031360032000F023F9002000F008F85B
:1014CC00FFF7B8FD0023184680BD00BF0020024086
:1014DC0080B582B000AF7860124B1A68124B1B7843
:1014EC0019464FF47A73B3FBF1F3B2FBF3F31846DE
:1014FC0000F03BF90346002B01D001230EE07B6882
:10150C000F2B0AD8002279684FF0FF3000F003F956
:10151C00064A7B681360002300E001231846083755
:10152C00BD4680BD08000020100000200C000020EB
:10153C0080B400AF054B1B781A46054B1B6813444F
:10154C00034A136000BFBD4680BC704710000020EA
:10155C002404002080B400AF024B1B681846BD4623
:10156C0080BC70472404002080B485B000AF786044
:10157C007B6803F00703FB600C4BDB68BB60BA684D
:10158C004FF6FF031340BB60FB681A02BB681343A2
:10159C0043F0BF6343F40033BB60044ABB68D360C1
:1015AC0000BF1437BD4680BC704700BF00ED00E0A3
:1015BC0080B400AF044BDB681B0A03F0070318462A
:1015CC00BD4680BC704700BF00ED00E080B483B026
:1015DC0000AF0346FB7197F90730002B0BDBFB794F
:1015EC0003F01F02064997F907305B09012000FA46
:1015FC0002F241F8232000BF0C37BD4680BC704777
:10160C0000E100E080B483B000AF03463960FB71A9
:10161C0097F90730002B0ADB3B68DAB20C4997F9D3
:10162C0007301201D2B20B4483F800230AE03B6866
:10163C00DAB20849FB7903F00F03043B1201D2B272
:10164C000B441A7600BF0C37BD4680BC704700BFF8
:10165C0000E100E000ED00E080B489B000AFF8607C
:10166C00B9607A60FB6803F00703FB61FB69C3F1A7
:10167C000703042B28BF0423BB61FB690433062B2F
:10168C0002D9FB69033B00E000237B614FF0FF3282
:10169C00BB6902FA03F3DA43BB681A407B699A40D0
:1016AC004FF0FF317B6901FA03F3D9437B680B40A0
:1016BC00134318462437BD4680BC704780B582B0B2
:1016CC0000AF78607B68013BB3F1807F01D30123CD
:1016DC000FE00A4A7B68013B53600F214FF0FF304B
:1016EC00FFF790FF054B00229A60044B07221A600B
:1016FC00002318460837BD4680BD00BF10E000E04F
:10170C0080B582B000AF78607868FFF72DFF00BF1E
:10171C000837BD4680BD80B586B000AF0346B960C2
:10172C007A60FB7300237B61FFF742FF78617A6874
:10173C00B9687869FFF790FF024697F90F301146A8
:10174C001846FFF75FFF00BF1837BD4680BD80B558
:10175C0082B000AF0346FB7197F907301846FFF7CC
:10176C0035FF00BF0837BD4680BD80B582B000AFE5
:10177C0078607868FFF7A2FF034618460837BD4625
:10178C0080BD000080B48BB000AF7860396000235E
:10179C007B6200233B6269E101227B6A02FA03F35C
:1017AC00FB613B681B68FA691340BB61BA69FB6952
:1017BC009A4240F058813B685B689A4A93425ED0EB
:1017CC00984A934275D8984A934258D0964A934275
:1017DC006FD8964A934252D0944A934269D8944A0D
:1017EC0093424CD0924A934263D8924A934246D049
:1017FC00904A93425DD8122B2AD8122B59D801A2A9
:10180C0052F823F08B1800086518000877180008A8
:10181C00B9180008BF180008BF180008BF18000846
:10182C00BF180008BF180008BF180008BF18000830
:10183C00BF180008BF180008BF180008BF18000820
:10184C00BF180008BF1800086D18000881180008A0
:10185C00794A934213D02CE03B68DB683B6229E069
:10186C003B68DB6804333B6224E03B68DB6808338D
:10187C003B621FE03B68DB680C333B621AE03B6861
:10188C009B68002B02D104233B6213E03B689B68EE
:10189C00012B05D108233B627B68FA691A6109E0C8
:1018AC0008233B627B68FA695A6103E000233B62C0
:1018BC0000E000BFBB69FF2B01D87B6801E07B68AF
:1018CC0004337B61BB69FF2B02D87B6A9B0002E06F
:1018DC007B6A083B9B003B617B691A680F213B6963
:1018EC0001FA03F3DB431A40396A3B6901FA03F34B
:1018FC001A437B691A603B685B6803F08053002BCA
:10190C0000F0B1804D4B9B694C4A43F0010393614D
:10191C004A4B9B6903F00103BB60BB68484A7B6A76
:10192C009B08023352F82330FB607B6A03F00303FD
:10193C009B000F2202FA03F3DB43FA681340FB60AF
:10194C007B68404A934213D07B683F4A93420DD048
:10195C007B683E4A934207D07B683D4A934201D153
:10196C00032306E0042304E0022302E0012300E049
:10197C0000237A6A02F0030292009340FA68134340
:10198C00FB602F497B6A9B080233FA6841F82320DD
:10199C003B685B6803F48013002B06D02D4B9A68D0
:1019AC002C49BB6913438B6006E02A4B9A68BB69D0
:1019BC00DB43284913408B603B685B6803F40013DE
:1019CC00002B06D0234BDA682249BB691343CB604A
:1019DC0006E0204BDA68BB69DB431E491340CB6041
:1019EC003B685B6803F40033002B06D0194B5A6834
:1019FC001849BB6913434B6006E0164B5A68BB6928
:101A0C00DB43144913404B603B685B6803F4803341
:101A1C00002B21D00F4B1A680E49BB6913430B6086
:101A2C0021E000BF00003210000031100000221035
:101A3C0000002110000012100000111000100240D4
:101A4C000000014000080140000C01400010014062
:101A5C0000140140000401400B4B1A68BB69DB43C6
:101A6C00094913400B607B6A01337B623B681A683F
:101A7C007B6A22FA03F3002B7FF48EAE00BF00BF0B
:101A8C002C37BD4680BC70470004014080B485B043
:101A9C0000AF78600B467B807B689A687B8813402C
:101AAC00002B02D00123FB7301E00023FB73FB7BB3
:101ABC0018461437BD4680BC704780B483B000AF65
:101ACC0078600B467B8013467B707B78002B03D0B1
:101ADC007A887B681A6103E07B881A047B681A6138
:101AEC0000BF0C37BD4680BC704780B485B000AFDA
:101AFC0078600B467B807B68DB68FB607A88FB68D0
:101B0C0013401A04FB68D9437B880B401A437B684B
:101B1C001A6100BF1437BD4680BC704780B586B0D3
:101B2C0000AF78607B68002B01D1012372E27B68E7
:101B3C001B6803F00103002B00F08780924B5B685D
:101B4C0003F00C03042B0CD08F4B5B6803F00C03DD
:101B5C00082B12D18C4B5B6803F48033B3F5803FB8
:101B6C000BD1894B1B6803F40033002B6CD07B68C2
:101B7C005B68002B68D101234CE27B685B68B3F592
:101B8C00803F06D1804B1B687F4A43F4803313603F
:101B9C002EE07B685B68002B0CD17B4B1B687A4A70
:101BAC0023F480331360784B1B68774A23F480232B
:101BBC0013601DE07B685B68B3F5A02F0CD1724BF2
:101BCC001B68714A43F4802313606F4B1B686E4A89
:101BDC0043F4803313600BE06B4B1B686A4A23F4AD
:101BEC0080331360684B1B68674A23F480231360AF
:101BFC007B685B68002B13D0FFF7ACFC386108E006
:101C0C00FFF7A8FC02463B69D31A642B01D90323C6
:101C1C0000E25D4B1B6803F40033002BF0D014E0A2
:101C2C00FFF798FC386108E0FFF794FC02463B692B
:101C3C00D31A642B01D90323ECE1534B1B6803F437
:101C4C000033002BF0D100E000BF7B681B6803F071
:101C5C000203002B63D04C4B5B6803F00C03002B8E
:101C6C000BD0494B5B6803F00C03082B1CD1464B83
:101C7C005B6803F48033002B16D1434B1B6803F0D5
:101C8C000203002B05D07B681B69012B01D00123BB
:101C9C00C0E13D4B1B6823F0F8027B685B69DB00FD
:101CAC00394913430B603AE07B681B69002B20D049
:101CBC00364B01221A60FFF74DFC386108E0FFF744
:101CCC0049FC02463B69D31A022B01D90323A1E13B
:101CDC002D4B1B6803F00203002BF0D02A4B1B6822
:101CEC0023F0F8027B685B69DB00274913430B6028
:101CFC0015E0264B00221A60FFF72CFC386108E037
:101D0C00FFF728FC02463B69D31A022B01D90323A7
:101D1C0080E11D4B1B6803F00203002BF0D17B68A4
:101D2C001B6803F00803002B3AD07B689B69002BDF
:101D3C0019D0174B01221A60FFF70CFC386108E030
:101D4C00FFF708FC02463B69D31A022B01D9032387
:101D5C0060E10D4B5B6A03F00203002BF0D0012015
:101D6C0000F09CFA1CE00A4B00221A60FFF7F2FB11
:101D7C0038610FE0FFF7EEFB02463B69D31A022BEA
:101D8C0008D9032346E100BF001002400000424284
:101D9C0080044242924B5B6A03F00203002BE9D1B0
:101DAC007B681B6803F00403002B00F0A680002363
:101DBC00FB758B4BDB6903F08053002B0DD1884BEB
:101DCC00DB69874A43F08053D361854BDB6903F0B1
:101DDC008053BB60BB680123FB75824B1B6803F40B
:101DEC008073002B18D17F4B1B687E4A43F48073A1
:101DFC001360FFF7AFFB386108E0FFF7ABFB02465F
:101E0C003B69D31A642B01D9032303E1754B1B687F
:101E1C0003F48073002BF0D07B68DB68012B06D1B8
:101E2C006F4B1B6A6E4A43F0010313622DE07B6813
:101E3C00DB68002B0CD16A4B1B6A694A23F0010347
:101E4C001362674B1B6A664A23F0040313621CE09F
:101E5C007B68DB68052B0CD1614B1B6A604A43F035
:101E6C00040313625E4B1B6A5D4A43F00103136269
:101E7C000BE05B4B1B6A5A4A23F001031362584B6D
:101E8C001B6A574A23F0040313627B68DB68002B40
:101E9C0015D0FFF75FFB38610AE0FFF75BFB0246EA
:101EAC003B69D31A41F28832934201D90323B1E042
:101EBC004B4B1B6A03F00203002BEED014E0FFF730
:101ECC0049FB38610AE0FFF745FB02463B69D31A30
:101EDC0041F28832934201D903239BE0404B1B6AA9
:101EEC0003F00203002BEED1FB7D012B05D13C4B03
:101EFC00DB693B4A23F08053D3617B68DB69002BA1
:101F0C0000F08780364B5B6803F00C03082B61D024
:101F1C007B68DB69022B46D1334B00221A60FFF73A
:101F2C0019FB386108E0FFF715FB02463B69D31A31
:101F3C00022B01D903236DE0294B1B6803F00073BE
:101F4C00002BF0D17B681B6AB3F5803F08D1244B82
:101F5C005B6823F400327B689B68214913434B6018
:101F6C001F4B5B6823F474127B68196A7B685B6A8D
:101F7C000B431B4913434B601B4B01221A60FFF7A9
:101F8C00E9FA386108E0FFF7E5FA02463B69D31A33
:101F9C00022B01D903233DE0114B1B6803F00073A6
:101FAC00002BF0D035E0104B00221A60FFF7D2FA6C
:101FBC00386108E0FFF7CEFA02463B69D31A022BD0
:101FCC0001D9032326E0064B1B6803F00073002B9A
:101FDC00F0D11EE07B68DB69012B07D1012319E0EE
:101FEC000010024000700040600042420B4B5B68E6
:101FFC00FB60FB6803F480327B681B6A9A4206D153
:10200C00FB6803F470127B685B6A9A4201D001236F
:10201C0000E0002318461837BD4680BD0010024072
:10202C0080B584B000AF786039607B68002B01D13B
:10203C000123D0E06A4B1B6803F007033A689A420D
:10204C0010D9674B1B6823F0070265493B681343A3
:10205C000B60634B1B6803F007033A689A4201D08C
:10206C000123B8E07B681B6803F00203002B20D02F
:10207C007B681B6803F00403002B05D0594B5B688D
:10208C00584A43F4E06353607B681B6803F0080311
:10209C00002B05D0534B5B68524A43F4605353609A
:1020AC00504B5B6823F0F0027B689B684D491343EF
:1020BC004B607B681B6803F00103002B40D07B68EE
:1020CC005B68012B07D1474B1B6803F40033002BD3
:1020DC0015D101237FE07B685B68022B07D1414B54
:1020EC001B6803F00073002B09D1012373E03D4BF7
:1020FC001B6803F00203002B01D101236BE0394B69
:10210C005B6823F003027B685B68364913434B60C2
:10211C00FFF720FAF8600AE0FFF71CFA0246FB68AA
:10212C00D31A41F28832934201D9032353E02D4B49
:10213C005B6803F00C027B685B689B009A42EBD1F6
:10214C00274B1B6803F007033A689A4210D2244BC2
:10215C001B6823F0070222493B6813430B60204B9A
:10216C001B6803F007033A689A4201D0012332E05E
:10217C007B681B6803F00403002B08D0194B5B68C9
:10218C0023F4E0627B68DB68164913434B607B6881
:10219C001B6803F00803002B09D0124B5B6823F477
:1021AC0060527B681B69DB000E4913434B6000F0E7
:1021BC0021F802460B4B5B681B0903F00F030A491D
:1021CC00CB5C22FA03F3094A1360094B1B681846CF
:1021DC00FFF77EF9002318461037BD4680BD00BFBF
:1021EC000020024000100240382B0008080000209C
:1021FC000C00002080B487B000AF0023FB600023EC
:10220C00BB6000237B6100237B6000233B611E4B82
:10221C005B68FB60FB6803F00C03042B02D0082BFB
:10222C0003D027E0194B3B6127E0FB689B0C03F0C4
:10223C000F03174AD35C7B60FB6803F48033002BDD
:10224C0010D0114B5B685B0C03F00103114AD35C9B
:10225C00BB607B680D4A03FB02F2BB68B2FBF3F375
:10226C007B6104E07B680C4A02FB03F37B617B69B6
:10227C003B6102E0054B3B6100BF3B6918461C37D4
:10228C00BD4680BC704700BF0010024000127A00AF
:10229C00482B0008582B000800093D0080B485B07D
:1022AC0000AF78600A4B1B680A4AA2FB03235B0A47
:1022BC007A6802FB03F3FB6000BFFB685A1EFA60EE
:1022CC00002BF9D100BF00BF1437BD4680BC70474E
:1022DC0008000020D34D621080B582B000AF78604A
:1022EC007B68002B01D1012341E07B6893F83D30E2
:1022FC00DBB2002B06D17B68002283F83C20786887
:10230C00FEF7CAFE7B68022283F83D207B681A68C0
:10231C007B6804331946104600F05CFA7B68012296
:10232C0083F846207B68012283F83E207B680122DB
:10233C0083F83F207B68012283F840207B680122D0
:10234C0083F841207B68012283F842207B680122BC
:10235C0083F843207B68012283F844207B680122A8
:10236C0083F845207B68012283F83D200023184622
:10237C000837BD4680BD000080B485B000AF7860E2
:10238C007B6893F83D30DBB2012B01D001233AE09E
:10239C007B68022283F83D207B681B68DA687B68C7
:1023AC001B6842F00102DA607B681B68184A934292
:1023BC000ED07B681B68B3F1804F09D07B681B681B
:1023CC00144A934204D07B681B68134A934211D180
:1023DC007B681B689B6803F00703FB60FB68062B9C
:1023EC0010D07B681B681A687B681B6842F001027E
:1023FC001A6007E07B681B681A687B681B6842F0F0
:10240C0001021A60002318461437BD4680BC704781
:10241C00002C0140000400400008004080B584B04E
:10242C0000AF78607B681B68DB68FB607B681B68AF
:10243C001B69BB60BB6803F00203002B20D0FB6858
:10244C0003F00203002B1BD07B681B686FF00202A9
:10245C001A617B6801221A777B681B689B6903F001
:10246C000303002B03D0786800F098F905E0786836
:10247C0000F08BF9786800F09AF97B6800221A77E3
:10248C00BB6803F00403002B20D0FB6803F00403AB
:10249C00002B1BD07B681B686FF004021A617B68F1
:1024AC0002221A777B681B689B6903F44073002B2C
:1024BC0003D0786800F072F905E0786800F065F9EF
:1024CC00786800F074F97B6800221A77BB6803F017
:1024DC000803002B20D0FB6803F00803002B1BD053
:1024EC007B681B686FF008021A617B6804221A77FC
:1024FC007B681B68DB6903F00303002B03D078684F
:10250C0000F04CF905E0786800F03FF9786800F0CD
:10251C004EF97B6800221A77BB6803F01003002B7E
:10252C0020D0FB6803F01003002B1BD07B681B68CA
:10253C006FF010021A617B6808221A777B681B689F
:10254C00DB6903F44073002B03D0786800F026F9A4
:10255C0005E0786800F019F9786800F028F97B68D4
:10256C0000221A77BB6803F00103002B0CD0FB6828
:10257C0003F00103002B07D07B681B686FF001028E
:10258C001A617868FEF706FBBB6803F08003002B2A
:10259C000CD0FB6803F08003002B07D07B681B6812
:1025AC006FF080021A61786800F07FFABB6803F064
:1025BC004003002B0CD0FB6803F04003002B07D02A
:1025CC007B681B686FF040021A61786800F0F8F8BD
:1025DC00BB6803F02003002B0CD0FB6803F0200336
:1025EC00002B07D07B681B686FF020021A6178689B
:1025FC0000F052FA00BF1037BD4680BD80B584B0E4
:10260C0000AF786039600023FB737B6893F83C3033
:10261C00012B01D10223B4E07B68012283F83C201A
:10262C007B68022283F83D207B681B689B68BB603B
:10263C00BB6823F07703BB60BB6823F47F43BB60AC
:10264C007B681B68BA689A603B681B68B3F5005FCF
:10265C003ED0B3F5005F00F28780B3F5805F00F0E9
:10266C008680B3F5805F7FD8702B1AD0702B7BD807
:10267C00602B50D0602B77D8502B3CD0502B73D87C
:10268C00402B58D0402B6FD8302B64D0302B6BD8CC
:10269C00202B60D0202B67D8002B5CD0102B5AD06D
:1026AC0062E07B6818683B6899683B685A683B68CD
:1026BC00DB6800F074F97B681B689B68BB60BB68C7
:1026CC0043F07703BB607B681B68BA689A604FE085
:1026DC007B6818683B6899683B685A683B68DB689C
:1026EC0000F05DF97B681B689A687B681B6842F494
:1026FC0080429A603CE07B6818683B6859683B688C
:10270C00DB681A4600F0D4F87B681B685021184629
:10271C0000F02BF92CE07B6818683B6859683B6823
:10272C00DB681A4600F0F2F87B681B6860211846DB
:10273C0000F01BF91CE07B6818683B6859683B6823
:10274C00DB681A4600F0B4F87B681B684021184619
:10275C0000F00BF90CE07B681A683B681B681946A3
:10276C00104600F002F903E00123FB7300E000BF08
:10277C007B68012283F83D207B68002283F83C2093
:10278C00FB7B18461037BD4680BD80B483B000AFCC
:10279C00786000BF0C37BD4680BC704780B483B0F6
:1027AC0000AF786000BF0C37BD4680BC704780B46A
:1027BC0083B000AF786000BF0C37BD4680BC70475B
:1027CC0080B483B000AF786000BF0C37BD4680BCCE
:1027DC007047000080B485B000AF786039607B68CA
:1027EC001B68FB607B682F4A93420BD07B68B3F16C
:1027FC00804F07D07B682C4A934203D07B682B4ACE
:10280C00934208D1FB6823F07003FB603B685B6864
:10281C00FA681343FB607B68224A93420BD07B68B7
:10282C00B3F1804F07D07B681F4A934203D07B687B
:10283C001E4A934208D1FB6823F44073FB603B684B
:10284C00DB68FA681343FB60FB6823F080023B688B
:10285C005B691343FB607B68FA681A603B689A6893
:10286C007B68DA623B681A687B689A627B680D4AFF
:10287C00934203D13B681A697B681A637B68012217
:10288C005A617B681B6903F00103002B05D07B6840
:10289C001B6923F001027B681A6100BF1437BD4627
:1028AC0080BC7047002C0140000400400008004030
:1028BC0080B487B000AFF860B9607A60FB681B6ABF
:1028CC007B61FB681B6A23F00102FB681A62FB68E0
:1028DC009B693B613B6923F0F0033B617B681B0107
:1028EC003A6913433B617B6923F00A037B617A6984
:1028FC00BB6813437B61FB683A699A61FB687A6930
:10290C001A6200BF1C37BD4680BC704780B487B0CC
:10291C0000AFF860B9607A60FB681B6A7B61FB688A
:10292C001B6A23F01002FB681A62FB689B693B610F
:10293C003B6923F470433B617B681B033A69134387
:10294C003B617B6923F0A0037B61BB681B017A6947
:10295C0013437B61FB683A699A61FB687A691A6276
:10296C0000BF1C37BD4680BC704780B485B000AF3B
:10297C00786039607B689B68FB60FB6823F07003B0
:10298C00FB603A68FB68134343F00703FB607B680A
:10299C00FA689A6000BF1437BD4680BC704780B49B
:1029AC0087B000AFF860B9607A603B60FB689B68E9
:1029BC007B617B6923F47F437B613B681A027B68F4
:1029CC001A43BB6813437A6913437B61FB687A69CA
:1029DC009A6000BF1C37BD4680BC704780B485B080
:1029EC0000AF786039607B6893F83C30012B01D1E3
:1029FC00022346E07B68012283F83C207B6802229C
:102A0C0083F83D207B681B685B68FB607B681B68F8
:102A1C009B68BB60FB6823F07003FB603B681B6822
:102A2C00FA681343FB607B681B68FA685A607B6822
:102A3C001B68164A93420ED07B681B68B3F1804F1B
:102A4C0009D07B681B68124A934204D07B681B68D0
:102A5C00104A93420CD1BB6823F08003BB603B68E7
:102A6C005B68BA681343BB607B681B68BA689A6082
:102A7C007B68012283F83D207B68002283F83C2090
:102A8C00002318461437BD4680BC7047002C01400B
:102A9C00000400400008004080B483B000AF7860B0
:102AAC0000BF0C37BD4680BC704780B483B000AF0C
:102ABC00786000BF0C37BD4680BC704703460244AB
:102ACC00934200D1704703F8011BF9E770B500265B
:102ADC000C4D0D4C641BA410A64209D100F01AF841
:102AEC0000260A4D0A4C641BA410A64205D170BDE9
:102AFC0055F8043B98470136EEE755F8043B9847E8
:102B0C000136F2E75C2B00085C2B00085C2B0008FC
:102B1C00602B0008F8B500BFF8BC08BC9E46704797
:0C2B2C00F8B500BFF8BC08BC9E4670471E
:102B38000000000000000000010203040607080965
:102B480002030405060708090A0B0C0D0E0F1010E6
:042B58000102000076
:042B5C00310100083B
:042B60000D0100085B
:102B6400640000001900000000127A001000000048
:042B7400010000005C
:040000050800146576
:00000001FF
